:020000040800F2
:10000000000002208D300008D5270008DB270008FB
:10001000E1270008E7270008ED270008000000009E
:10002000000000000000000000000000F3270008AE
:1000300001280008000000000F2800081D28000803
:10004000DD300008DD300008DD300008DD3000085C
:10005000DD300008DD300008DD300008DD3000084C
:10006000DD300008DD300008DD300008DD3000083C
:10007000DD300008DD300008DD300008DD3000082C
:10008000DD300008DD300008DD300008DD3000081C
:10009000DD300008DD300008DD300008DD3000080C
:1000A000DD300008DD300008DD300008DD300008FC
:1000B000DD300008DD300008DD300008DD300008EC
:1000C000DD300008DD300008DD300008DD300008DC
:1000D000DD300008DD300008DD300008DD300008CC
:1000E000DD300008DD300008DD300008DD300008BC
:1000F000DD300008DD300008DD300008DD300008AC
:10010000DD300008DD300008DD300008DD3000089B
:10011000DD300008DD300008DD300008DD3000088B
:100120002928000837280008DD300008DD300008E5
:10013000DD300008DD300008DD300008DD3000086B
:10014000DD300008DD300008DD300008DD3000085B
:10015000DD300008DD300008DD300008DD3000084B
:10016000DD300008DD300008DD300008DD3000083B
:10017000DD300008DD300008DD300008DD3000082B
:10018000DD300008DD300008DD300008DD3000081B
:10019000DD30000800000000DD300008DD30000820
:1001A000DD300008DD300008DD300008DD300008FB
:1001B000DD300008DD300008DD300008DD300008EB
:1001C000DD300008DD300008DD300008DD300008DB
:1001D000DD300008DD30000810B5054C237833B958
:1001E000044B13B10448AFF300800123237010BD0A
:1001F0002C040020000000006054000808B5034BE8
:100200001BB103490348AFF3008008BD00000000A4
:10021000300400206054000880B400AF064B1B6817
:1002200003F48073002B01D1012300E00023184662
:10023000BD465DF8047B70470000014080B582B088
:1002400000AF7860FFF7E8FF0346002B16D0184B8D
:100250001B884FF6FF72934208D0154B1B689B0218
:100260005A08144B134003F1006300E0124B7A6804
:10027000934201D9012317E0022315E00C4B1B88A0
:100280004FF6FF72934208D0094B1B689B025A0835
:10029000084B134003F1006300E0074B7A68934278
:1002A00001D9022300E0012318460837BD4680BD6E
:1002B000E075FF1F00FEFF010000040880B485B058
:1002C00000AF7860194B1B884FF6FF72934208D03D
:1002D000164B1B689B025A08154B134003F1006331
:1002E00000E0144B7A68934205D97B6803F17843A8
:1002F000DB0AFB6013E00D4B1B884FF6FF72934245
:1003000008D00A4B1B689B025A08094B134003F1A3
:10031000006300E0074B7A68D31ADB0AFB60FB68D6
:1003200018461437BD465DF8047B7047E075FF1F23
:1003300000FEFF010000040880B483B000AF7860C5
:100340007B68B3F1006F11D30D4B1B884FF6FF7222
:10035000934207D00A4B1B689A020A4B134003F1E1
:10036000006300E0084B7A68934201D8012300E063
:10037000002318460C37BD465DF8047B704700BF6C
:10038000E075FF1F00FCFF030000080880B483B085
:1003900000AF786039607B6803F00703002B15D14C
:1003A0007B68B3F1006F11D31D4B1B884FF6FF72B2
:1003B000934207D01A4B1B689A021A4B134003F161
:1003C000006300E0184B7A68934201D8012320E0D3
:1003D0003A687B68D31A013303F00703002B15D169
:1003E0003B68B3F1006F11D30D4B1B884FF6FF72C2
:1003F000934207D00A4B1B689A020A4B134003F141
:10040000006300E0084B3A68934201D8012300E002
:10041000002318460C37BD465DF8047B704700BFCB
:10042000E075FF1F00FCFF030000080880B58AB0DC
:1004300000AF78603960002387F827300023BB6065
:1004400000233B620023FB617868FFF775FF0346DA
:10045000002B05D13868FFF76FFF0346002B01D052
:10046000002330E003F0BCF97868FFF727FF38621B
:100470003868FFF723FF02463B6AD31A0133FB615A
:100480000023FB607868FFF7D9FE03463B613B6AB7
:100490007B61FB69BB610E4B48F291021A6107F167
:1004A000080207F10C031146184603F085FA0346CB
:1004B00087F8273003F0B6F997F82730002B0CBFE8
:1004C00001230023DBB218462837BD4680BD00BF9C
:1004D0000020024080B588B000AFF860B9607A6053
:1004E000BB68BB617B68DB083B61FA687B681344CF
:1004F000013B1946F868FFF749FF0346002B01D07E
:10050000002322E00023FB611AE003F069F9FB6994
:10051000DA00FB68D118FB69DB00BA691344D3E940
:100520000023002003F006F90346FB7503F07AF977
:10053000FB7D002B01D0002307E0FB690133FB6149
:100540003B69FA699A42E0D3012318462037BD4639
:1005500080BD000080B485B000AF786039607B68F2
:10056000FB600C4A3B6813441B781A46FB68134433
:100570001B6808493A680A4412781146FA680A4426
:1005800043F00103136000BF1437BD465DF8047BE0
:10059000704700BF7854000880B485B000AF786021
:1005A00039607B68FB600C4A3B6813441B781A4631
:1005B000FB6813441B6808493A680A4412781146DC
:1005C000FA680A4423F00103136000BF1437BD46E4
:1005D0005DF8047B704700BF7854000880B487B092
:1005E00000AFF860B9607A60FB687B610D4ABB6858
:1005F00013441B781A467B6913445B681B0C1B046D
:100600000849BA680A44127811467A690A441146C0
:100610007A6813434B6000BF1C37BD465DF8047B0E
:10062000704700BF7854000880B485B000AF786090
:1006300039607B68FB60074A3B6813441B781A46A5
:10064000FB6813445B689BB218461437BD465DF8DF
:10065000047B70477854000880B487B000AFF8601E
:10066000B9607A60FB687B61074ABB6813441B78FA
:100670001A467B6913441A467B68D36000BF1C3757
:10068000BD465DF8047B70477854000880B487B09D
:1006900000AFF860B9607A60FB687B61074ABB68AD
:1006A00013441B781A467B6913441A467B6893608F
:1006B00000BF1C37BD465DF8047B704778540008C6
:1006C00080B485B000AF786039607B68FB600C4A0D
:1006D0003B6813441B781A46FB6813441B6808499F
:1006E0003A680A4412781146FA680A4423F0020371
:1006F000136000BF1437BD465DF8047B704700BF30
:100700007854000880B485B000AF786039607B68A9
:10071000FB600C4A3B6813441B781A46FB68134481
:100720001B6808493A680A4412781146FA680A4474
:1007300023F00403136000BF1437BD465DF8047B4B
:10074000704700BF7854000880B485B000AF78606F
:1007500039607B68FB600C4A3B6813441B781A467F
:10076000FB6813441B6808493A680A44127811462A
:10077000FA680A4423F00803136000BF1437BD462B
:100780005DF8047B704700BF7854000880B489B0DE
:1007900000AF78607B680833FB60FB6853E8003F7C
:1007A000BB60BB6843F04003FB617B680833FA69B8
:1007B000BA617B617969BA6941E800233B613B69B1
:1007C000002BE7D100BF00BF2437BD465DF8047B96
:1007D000704780B489B000AF78607B680833FB60F5
:1007E000FB6853E8003FBB60BB6843F08003FB61DC
:1007F0007B680833FA69BA617B617969BA6941E853
:1008000000233B613B69002BE7D100BF00BF2437C9
:10081000BD465DF8047B704780B485B000AF78605A
:1008200039603B68002B03D17B682833FB6002E012
:100830007B682433FB60FB6818461437BD465DF8BF
:10084000047B704780B500AF4FF40072002123484D
:10085000FFF7C4FE01212248FFF7DEFF03461A46D8
:1008600000211E48FFF712FF1E4B1A4600211B48AD
:10087000FFF7F2FE002201211848FFF7AFFE00212A
:100880001748FFF7C9FF03461A4601211348FFF72F
:10089000FDFE01211148FFF713FF01210F48FFF76B
:1008A00053FF01210D48FFF72DFF00210B48FFF7F3
:1008B00007FF00210948FFF747FF00210748FFF71E
:1008C00021FF00210548FFF745FE0548FFF781FF9E
:1008D0000348FFF75BFF00BF80BD00BF000402407C
:1008E000004800404804002080B584B000AF786024
:1008F00000211448FFF798FE03469BB2C3F500732E
:10090000FB81114B1B88FA899A4215D00E4B1B882C
:100910001A460E4B9A5C7B681A700B4B1B8801338E
:100920009AB2094B1A80084B1B88C3F308039AB28A
:10093000054B1A80012300E0002318461037BD46FE
:1009400080BD00BF0004024048060020480400208B
:1009500080B584B000AF786039607B68FB600121AE
:100960000A48FFF719FE3A6801210848FFF736FEEA
:10097000FA6801210548FFF76FFE01210348FFF7E0
:10098000E9FD00BF1037BD4680BD00BF0004024036
:1009900080B500AF01210548FFF746FE0346002B56
:1009A00001D1012300E00023184680BD000402406D
:1009B00080B584B000AF00F073FB0346002B02D07B
:1009C00000F02CF81FE000F02BFB0346002B18D0A2
:1009D0000F4B1A680F4B1340B3F1005F0ED10E4B53
:1009E0001B68FB60FB68BB60094B1B687B607B6816
:1009F00083F3088800BFBB68984704E000F00EF856
:100A000001E000F00BF800BF1037BD4680BD00BF0D
:100A1000000804080000FC2F0408040880B500AF9B
:100A200000F028F801F070FB064B1B6803F48033DC
:100A3000B3F5803FF8D100F021FE01F07DFB00F01E
:100A40005DF8F1E710E000E080B400AFBFF34F8F36
:100A500000BF064BDB6803F4E0620449044B134318
:100A6000CB60BFF34F8F00BF00BFFDE700ED00E09C
:100A70000400FA0580B400AF064B0022DA70054A84
:100A8000137943F00203137100BFBD465DF8047B88
:100A9000704700BF4C06002080B500AF40F2AC426A
:100AA0000021104804F0D4FC0E4B4FF480629A678A
:100AB0000C4B4FF40032DA610A4B0B4A5A62094B75
:100AC0000A4A9A62074B0A4ADA62064B094A5A6393
:100AD000044B094A1A63034A137943F00203137162
:100AE00000BF80BD4C060020450E0008590E0008CE
:100AF000710E0008CD0E00089D0F000880B500AFF4
:100B00006A4BDB780A2B00F2BB8001A252F823F07B
:100B10003D0B0008590B0008610B0008850B00080D
:100B20009D0B0008AF0B0008810C00081B0C00088F
:100B30003B0C00087B0C0008550C00085B4B1B7835
:100B4000002B00F0A180FFF7A7FF584B00221A707E
:100B5000564B0122DA7097E0544B0222DA709CE087
:100B600000F0A8F80346002B00F090804F4B9B78D4
:100B7000002B00F08B804D4B00229A704B4B0322D0
:100B8000DA7083E0494BDB6A002B03D0474BDB6A0A
:100B900047489847454B0422DA707EE000F0BCF8E5
:100BA0000346002B74D0414B0522DA7070E03F4BB6
:100BB000B3F87030002B23D13C4BB3F8703019469A
:100BC0003A4A342301FB03F3134434331B68002BEC
:100BD00016D0364BB3F870301946344A342301FB33
:100BE00003F3134434331B68304AB2F870201146C3
:100BF000342201FB02F22D490A4404321046984780
:100C000000F0BCF80346002B03D1284B5B78002B87
:100C100040D0264B0722DA703CE0244B1B6B002BA4
:100C200003D0224B1B6B22489847204B0822DA70D6
:100C30001E4B0022C3F8A4242FE000F0D1F8034695
:100C4000002B03D0194B0A22DA7026E0174B092239
:100C5000DA7022E0154BD3F8A8345A1C1349C1F8B6
:100C6000A824B3F5FA6F17D9104B9B6A002B13D049
:100C70000E4B9B6A0E4898470EE00C4B0922DA7027
:100C80000A4B0022DA7008E000BF06E000BF04E073
:100C900000BF02E000BF00E000BF044B1B78002B48
:100CA00002D0024B0022DA7000BF80BD4C0600204B
:100CB0005006002080B483B000AF0123FB710123F4
:100CC000BB71144B1B7903F00103DBB2002B06D080
:100CD000104B1B7903F00203DBB2002B01D0012380
:100CE00000E00023BB71BB7903F00103BB71BB794A
:100CF000002B04D0FB79002B01D0012300E000235E
:100D000003F00103DBB218460C37BD465DF8047BE7
:100D1000704700BF4C06002080B483B000AF0123B1
:100D2000FB710123BB71144B1B7903F00103DBB290
:100D3000002B06D0104B1B7903F00803DBB2002B0D
:100D400001D0012300E00023BB71BB7903F0010354
:100D5000BB71BB79002B04D0FB79002B01D00123A0
:100D600000E0002303F00103DBB218460C37BD4658
:100D70005DF8047B704700BF4C06002080B483B050
:100D800000AF0123FB710123BB71144B1B7903F0EE
:100D90000103DBB2002B06D0104B1B7903F02003BC
:100DA000DBB2002B01D0012300E00023BB71BB7933
:100DB00003F00103BB71BB79002B04D0FB79002B3E
:100DC00001D0012300E0002303F00103DBB2184649
:100DD0000C37BD465DF8047B704700BF4C06002011
:100DE00080B483B000AF0123FB710123BB71144BAE
:100DF0001B7903F00103DBB2002B06D0104B1B79EB
:100E000023F07F03DBB2002B01D0012300E000239D
:100E1000BB71BB7903F00103BB71BB79002B04D01C
:100E2000FB79002B01D0012300E0002303F0010334
:100E3000DBB218460C37BD465DF8047B704700BF37
:100E40004C06002080B483B000AF786000BF0C3740
:100E5000BD465DF8047B704780B582B000AF786016
:100E6000024B00221A60FFF7EFFD00BF00000020D8
:100E700080B584B000AF78607B68FB60FB681B784E
:100E800003F00103DBB2002B17D0FB681B7803F0E3
:100E90000403DBB2002B10D1FA68137843F004038B
:100EA000137008490848FFF7C1FA0346002B04D025
:100EB000FA68137843F00803137000BF1037BD467B
:100EC00080BD00BFFFFF05080000040880B584B0A6
:100ED00000AF78607B68FB60FB681B7803F0010360
:100EE000DBB2002B4FD0FB681B7803F01003DBB2A2
:100EF000002B48D0FA6813786FF304131370FB6863
:100F0000DA68FB681B69D31A214A926F02FB03F36C
:100F100003F1006303F58023BB601D4BD3F88024ED
:100F2000BB681344013B1B4A934227D8184BD3F8A4
:100F300080341A461849B868FFF7CCFA034683F0A4
:100F40000103DBB2002B05D0FA68537843F00403A9
:100F5000537018E0FB68DA690D4BD3F880341A44FB
:100F6000FB68DA61FB68DA69FB689B699A420AD31D
:100F7000FA68137843F02003137004E0FA6853789A
:100F800043F00103537000BF1037BD4680BD00BF62
:100F90004C060020FFFF0508CC06002080B584B079
:100FA00000AF78607B68FB60FB681B7803F001038F
:100FB000DBB2002B2AD0FB681B7803F04003DBB2C6
:100FC000002B23D1FA68137843F040031370114BC0
:100FD0001A68FB689A60104B1B68BB60BB680F4ABD
:100FE000934213D84FF0FF32B9680B4800F0B6F9BE
:100FF0000246FB685A60FB689A68FB685B689A4225
:1010000004D1FA68137843F08003137000BF1037DF
:10101000BD4680BD0000040804000408FEFF010076
:1010200080B582B000AF1A4B7B6034220021786813
:1010300004F00EFA174B1A687B689A60164B1B680F
:101040003B603B68154A934213D84FF0FF32396832
:10105000114800F083F902467B685A607B689A6801
:101060007B685B689A4204D17A68137843F0800306
:1010700013707B681B78C3F3C013DBB2002B14BF63
:1010800001230023DBB218460837BD4680BD00BFF0
:10109000500600200000040804000408FEFF0100C0
:1010A00080B500AF064B1B684AF65522934203D128
:1010B00000F008F8012300E00023184680BD00BFBF
:1010C0000000002080B400AF034B01221A7000BF63
:1010D000BD465DF8047B70474C06002080B400AF2D
:1010E000034B01229A7000BFBD465DF8047B704738
:1010F0004C06002080B400AF034B01225A7000BFA1
:10110000BD465DF8047B70474C06002080B483B078
:1011100000AF0346FB80FB88064A342101FB03F342
:10112000134404331B8818460C37BD465DF8047B16
:10113000704700BF4C06002080B483B000AF7860D9
:1011400039607B68FF2B02D8044A7B68536700BF75
:101150000C37BD465DF8047B704700BF4C0600208D
:1011600080B487B000AF0346B9607A60FB81FB8929
:10117000002B21D1FB89342202FB03F3114A1344D3
:1011800004337B617B69BA681A617B697A685A614A
:101190007A69137843F0010313700A4BB3F86C308B
:1011A0001AB2FB89012101FA03F31BB213431BB2EC
:1011B0009AB2044BA3F86C2000BF1C37BD465DF803
:1011C000047B70474C06002080B483B000AF034618
:1011D000FB80012318460C37BD465DF8047B704741
:1011E00080B586B000AF0346B9607A60FB81FB89A9
:1011F000184600F03BF80346002B2DD0FB8918461B
:10120000FFF7E2FF0346002B26D07A68B96815483D
:1012100004F010F9144A7B68C2F88034124BDB6F7B
:101220000133114AD367104BB3F870301A46342398
:1012300002FB03F30C4A134404337B61FA897B6994
:10124000DA607A69137843F010031370FB8918464B
:1012500000F036F8012300E0002318461837BD4699
:1012600080BD00BFCC0600204C06002080B483B0B7
:1012700000AF0346FB80FA88104B5B6F9A4215D291
:10128000FB88DB089BB21A460C4B134493F884345A
:101290001A46FB8803F0070342FA03F303F0010345
:1012A000002B0CBF01230023DBB200E00023184613
:1012B0000C37BD465DF8047B704700BF4C0600202C
:1012C00080B483B000AF0346FB80FB88FF2B1AD8A5
:1012D000FB88DB089BB21A460E4B134493F8843408
:1012E0005AB2FB8803F00703012101FA03F35BB252
:1012F00013435AB2FB88DB089BB21946D2B2054BA6
:101300000B4483F8842400BF0C37BD465DF8047B92
:10131000704700BF4C060020B0B483B000AF7860C7
:1013200039603B681F2B10D97A680B4B154603F2C6
:1013300084440FCC28606960AA60EB600FCC286100
:101340006961AA61EB61202300E0002318460C3795
:10135000BD46B0BC704700BF4C06002080B487B0CB
:1013600000AFF860B9607A60FB687B610EE07B6972
:101370005A1C7A611B781A467B685340DBB20A4AD2
:1013800052F823207B681B0A53407B60BB685A1EBF
:10139000BA60002BEBD17B68DB4318461C37BD4697
:1013A0005DF8047B704700BF8054000880B584B0AE
:1013B00000AFF860B9607A60FB685B88002B4AD0A8
:1013C0007B68FF2B47D8FB689A68FB68B3F9043049
:1013D00019460B469B010B449B0013441846FB68BF
:1013E0009A68FB68B3F9043019460B469B010B441D
:1013F0009B001344D3F800311A460146B86804F044
:1014000019F8FB68B3F904309BB201339BB21AB2EE
:10141000FB689A80FB68B3F90430FA68128893FB82
:10142000F2F101FB02F29B1A1AB2FB689A80FB6888
:101430005B88013B9AB2FB685A80FB689A68FB683C
:10144000B3F9043019460B469B010B449B0013442F
:10145000D3F8003100E0002318461037BD4680BDA8
:1014600080B586B000AFF860B9607A60FB68002292
:10147000C3F82424FB68D3F82434591CFA68C2F852
:101480002414FA681344C0225A700023FB8212E02D
:10149000FB8ABA6813441878FB68D3F82434FA68D6
:1014A0001344591CFB6803F224431A4600F0ADF8BC
:1014B000FB8A0133FB82FB8A7A689A42E8D8FB6890
:1014C000D3F82434591CFA68C2F82414FA68134477
:1014D000C0225A7000BF1837BD4680BD80B584B0A9
:1014E00000AF78600B46FB700023FB737B68D3F87A
:1014F0004818154BA3FB01231A0A13465B0113443A
:101500005B01CA1A7B68C3F848287B68D3F848385F
:1015100003F585637A68D1187B6803F648027B6817
:10152000F87800F013F80346FB73FB7B002B06D022
:101530007B68D3F84838042B01D9012300E000234D
:1015400018461037BD4680BDE1830F3E80B489B098
:1015500000AFB9607A603B600346FB730023FB7702
:10156000BB68BB613B681B78FB75FB7BC02B02D063
:10157000DB2B10D013E0FB7D012B05D13B68002253
:101580001A700123FB7739E03B6803221A707B68ED
:1015900000221A6032E03B6802221A702EE0FB7DC6
:1015A000002B05D13B6803221A707B6800221A6069
:1015B000FB7D022B15D1FB7BDC2B03D1BB69C02249
:1015C0001A7005E0FB7BDD2B17D1BB69DB221A709B
:1015D0003B6801221A707B681B685A1C7B681A6082
:1015E0000CE0BB69FA7B1A703B6801221A707B68B9
:1015F0001B685A1C7B681A6000E000BFFB7F18461E
:101600002437BD465DF8047B704780B487B000AFD7
:101610000346B9607A60FB73BB687B61FB7BC02BC0
:1016200002D0DB2B0DD019E07B69DB221A707B69BD
:101630000133DC221A707B681B689A1C7B681A6075
:1016400015E07B69DB221A707B690133DD221A7099
:101650007B681B689A1C7B681A6008E07B69FA7BD0
:101660001A707B681B685A1C7B681A6000BF00BF39
:101670001C37BD465DF8047B7047000080B582B022
:1016800000AF0023FB800023FB800CE0FB8840F6CA
:10169000E47202FB03F3124A1344184600F024F8E4
:1016A000FB880133FB80FB88002BEFD00023BB803D
:1016B0000023BB800CE0BB8840F6DC4202FB03F356
:1016C000084A1344184600F077F9BB880133BB8001
:1016D000BB88002BEFD000BF00BF0837BD4680BDE0
:1016E000F80A0020DC1A002080B584B000AF7860D2
:1016F0000023FB737B68D3F8B83C002B66D07B6873
:10170000D3F8BC3C002B61D07B68D3F8C03C002BE5
:101710005CD013E07B680433FA7B11461846FFF770
:10172000DDFE0346002B09D07B6803F22C417B6869
:10173000D3F84C381A46786800F04CF87B68D3F838
:10174000B83C07F10F02104698470346002BE1D141
:101750007B68D3F8BC3C98470346002B37D07B68A6
:10176000D3F8C43C591C7A68C2F8C41C0A2B2ED981
:101770007B6803F6D4707B6803F654034FF48462ED
:101780001946FFF713FE02467B68C3F850287B68B2
:10179000D3F85038002B1AD07B680022C3F8C42C31
:1017A0007B68181D7B6803F654017B68D3F85038BA
:1017B0001A46FFF755FE7B68D3F8C03C7A68501D87
:1017C0007A68D2F828241146984700E000BF103705
:1017D000BD4680BD80B588B000AFF860B9607A6062
:1017E0000023FB83BB680433BB61BB6802331B78F7
:1017F0009AB2BB6803331B789BB21B029BB21344A3
:10180000FB82BB681B787B75BB685B783B757B682C
:10181000023BBA6813441B789AB27B68013BB968F3
:101820000B441B781B029BB213447B8200233B8238
:101830007B68023B00221946B86800F0ABFA034609
:101840003B827A8A3B8A9A4242D1BB6801331B7839
:101850005B09DBB203F00303012B0BD1FB68D3F868
:10186000E03F002B34D0FB68D3F8E03F7968B868DC
:1018700098472DE00023FB8322E0FB8BFA6803F5F9
:10188000C773DB0013441B793A7D9A4215D1FB8B59
:10189000FA6803F5C773DB0013449B68002B16D06E
:1018A000FB8BFA6803F5C773DB0013449B687A7DF2
:1018B00090B2FA8AB969984709E0FB8B0133FB8340
:1018C000FB68B3F8B43CFA8B9A42D6D300E000BF71
:1018D00000BF2037BD4680BD80B586B000AFBA607E
:1018E0007B600346FB810B46BB81FB89002B20D12B
:1018F000FB8940F6DC4202FB03F3104A13447B6190
:1019000040F6DC420021786903F0A2FD7B690022E9
:101910005A70BB89DAB27B691A707B69BA68C3F8FE
:10192000BC2C7B697A68C3F8C02C7B693A6AC3F81F
:10193000C42C00BF1837BD4680BD00BFDC1A002094
:1019400080B485B000AF03463A60FB800B467B71E4
:10195000FB88002B28D1FB8840F6DC4202FB03F316
:10196000144A1344FB60FB68B3F8B83C072B1BD840
:10197000FB68B3F8B83C1A46FB6802F28F1279791B
:1019800003F83210FB68B3F8B83CFA6803F28F131F
:10199000DB0013443A685A60FB68B3F8B83C013383
:1019A0009AB2FB68A3F8B82C00BF1437BD465DF8A7
:1019B000047B7047DC1A002080B584B000AF7860EB
:1019C0000023FB737B68D3F8BC3C002B77D07B688B
:1019D000D3F8C03C002B72D07B68D3F8C43C002BFA
:1019E0006DD07B685B78022B2FD0022B69DC002B3B
:1019F00002D0012B1ED064E07B6801225A7063E0A4
:101A00007B680833FA7B11461846FFF767FD0346EB
:101A1000002B0FD07B6803F586617B68D3F85038C4
:101A20001A46786800F053F80346002B02D07B6812
:101A300002225A707B68D3F8BC3C07F10F021046B3
:101A400098470346002BDBD13EE07B68DB885A1CBD
:101A500091B27A68D180322B05D97B680022DA8076
:101A60007B680022DA707B68DB7883F00103DBB2ED
:101A7000002B28D07B68D3F8C03C98470346002B46
:101A800021D07B6803F108007B6803F658017B686E
:101A9000D3F854381A46FFF7E3FC7B68D3F8C43C0C
:101AA0007A6802F109007A68D2F82C241146984726
:101AB0007B6800229A707B6801225A7003E000BFA5
:101AC00002E000BF00E000BF1037BD4680BD80B51A
:101AD00088B000AFF860B9607A600023FB7700231C
:101AE000BB83BB680433BB61BB6802331B789AB20B
:101AF000BB6803331B789BB21B029BB21344FB826F
:101B0000BB681B787B75BB685B783B757B68023B69
:101B1000BA6813441B789AB27B68013BB9680B44DE
:101B20001B781B029BB213447B8200233B827B68A1
:101B3000023B00221946B86800F02CF903463B82AC
:101B40007A8A3B8A9A4277D1FB681B787A7D9A42DF
:101B500002D07B7D002B35D1FB683A7D1A713B7D2D
:101B600003F01F033B750023BB8322E0BA8BFB68A5
:101B700002F28F1213F832303A7D9A4216D1BB8BA3
:101B8000FA6803F28F13DB0013445B68002B17D055
:101B9000BB8BFA6803F28F13DB0013445B68FA8A8D
:101BA0001146B86998470346FB7709E0BB8B0133C0
:101BB000BB83FB68B3F8B83CBA8B9A42D6D33BE000
:101BC00000BF39E0BB6801331B785B09DBB203F06F
:101BD0000303012B30D10023BB8325E0BA8BFB68C4
:101BE00002F2991213F83220BB6801331B785B09AB
:101BF000DBB29A4215D1BB8BFA6803F29913DB0072
:101C000013445B68002B16D0BB8BFA6803F2991360
:101C1000DB0013445B687968B86898470123FB7759
:101C200009E0BB8B0133BB83FB68B3F8B83CBA8BCC
:101C30009A42D3D300E000BFFB7F18462037BD4651
:101C400080BD000080B586B000AFBA607B600346FF
:101C5000FB810B467B730023FB82FB89002B40F04A
:101C60009180FB8940F6DC4202FB03F3484A1344AF
:101C70003B613B690022C3F854283B69D3F85438D0
:101C8000591C3A69C2F854183A6911783A691344F0
:101C90000A4683F858283B691B7923F01F03D9B201
:101CA0003B69D3F85438581C3A69C2F854087A7B17
:101CB0000A44D1B23A6913440A4683F858283B696A
:101CC000D3F85438591C3A69C2F854187A68D1B21A
:101CD0003A6913440A4683F858287B68180A3B6916
:101CE000D3F85438591C3A69C2F85418C1B23A6949
:101CF00013440A4683F858283B69D3F8543803F64E
:101D000058033A6913447A68B968184603F092FB9D
:101D10003B69D3F854287B681A443B69C3F85428BC
:101D20003B6903F658003B69D3F854380022194642
:101D300000F030F80346FB823B69D3F85438591C55
:101D40003A69C2F85418FA8AD1B23A6913440A4679
:101D500083F85828FB8A1B0A98B23B69D3F8543899
:101D6000591C3A69C2F85418C1B23A6913440A4678
:101D700083F858283B6901229A703B690022DA7087
:101D8000012300E0002318461837BD4680BD00BF80
:101D9000DC1A002080B487B000AFF860B960134649
:101DA000FB80FB687B6111E0FB881B0A9BB21AB2C7
:101DB000F9887B69581C78611B784B40DBB2094974
:101DC00031F813301BB253401BB2FB80BB685A1E64
:101DD000BA60002BE8D1FB8818461C37BD465DF879
:101DE000047B70478058000880B500AF054A052184
:101DF0000020FFF7A5FD044A06210020FFF7A0FD03
:101E000000BF80BDCD1E00086D1F000880B584B0E6
:101E100000AF0020FFF77AF90346BB803B7903F05F
:101E20000803DBB2002B03D0264B02221A800CE001
:101E30003B7903F00203DBB2002B03D0214B0122DC
:101E40001A8002E01F4B00221A8000233B817B791D
:101E5000C3F34003DAB23B7A62F304133B727B793B
:101E6000C3F30003DAB23B7A62F345133B727B792A
:101E7000C3F38003DAB23B7A62F386133B723B7999
:101E800003F04003DBB2002B07D03B7923F07F0344
:101E9000DBB2002B01D1012300E0002303F001039A
:101EA000DAB23B7A62F3C7133B723A89054B5A8028
:101EB00040210548FFF730FAF86000BF1037BD46F3
:101EC00080BD00BFB82F0020BC2F002080B586B099
:101ED00000AF786039607B681B789AB27B68013309
:101EE0001B781B029BB21344FB827B6802333B616D
:101EF0003B68032B01D800232EE03B691B781A4670
:101F00003B6901331B781B029BB21344FB60FB68E7
:101F10000233B3F5006F01D900231DE0FA8AFB6894
:101F20001344442B01D9002316E0FFF76FFF7B68B1
:101F30001B889AB20A4B1A800A48FB8A0A4A134441
:101F4000FA68194603F076FAFB680233044A152151
:101F50000020FFF777FE012318461837BD4680BDE5
:101F6000B8270020BA270020B82F002080B586B0FF
:101F700000AF786039600023FB757B681B789AB2EC
:101F80007B6801331B781B029BB21344BB827B68C6
:101F900002333B613B68023BFB603B68032B01D88B
:101FA00000233FE07B681B889AB2204B1A80BB8AD3
:101FB000AA2B1FD0AA2B24DC8A2B14D08A2B20DC3E
:101FC000642B02D0662B07D01BE0F968386900F05B
:101FD0002FF80346FB7515E0F968386900F034F80E
:101FE0000346FB750EE0F968386900F039F80346DE
:101FF000FB7507E0F968386900F068F80346FB757F
:1020000000E000BFFB7D002B0BD0084B01229A7033
:10201000064B0022DA700423044A16210020FFF741
:1020200011FEFB7D18461837BD4680BDB82700203D
:1020300080B582B000AF78603960FFF743F80023C5
:1020400018460837BD4680BD80B582B000AF7860C5
:102050003960FFF74FF8002318460837BD4680BDAA
:1020600080B586B000AF786039607B6811331B782B
:102070001A467B6812331B781B029BB213447B61A8
:102080004FF480633B617B6813331B781A467B688F
:1020900014331B781B029BB21344FB6039697869C7
:1020A000FFF74AF87B681B7803F00203002B06D089
:1020B0007B69013B1A46F9680020FFF751F8FFF7EA
:1020C0000DF8002318461837BD4680BD80B584B092
:1020D00000AF786039607B681B789AB27B68013307
:1020E0001B781B029BB21344FB81FB89013B98B216
:1020F0007B68991C3B68023B1A46FFF771F8002386
:1021000018461037BD4680BD80B582B002AF074B80
:102110000093074B074A01210020FFF7DDFBFFF783
:1021200063FEFEF78FFB00BFBD4680BD510900086E
:1021300091090008E908000880B400AF00BFBD465F
:102140005DF8047B7047000080B400AF044BDB688F
:102150001B0A03F007031846BD465DF8047B704771
:1021600000ED00E080B483B000AF0346FB7197F947
:102170000730002B0BDBFB7903F01F02074997F9AF
:1021800007305B09012000FA02F241F8232000BF6A
:102190000C37BD465DF8047B704700BF00E100E0EE
:1021A00080B483B000AF03463960FB7197F9073004
:1021B000002B0ADB3B68DAB20C4997F907301201B1
:1021C000D2B20B4483F800230AE03B68DAB2084934
:1021D000FB7903F00F03043B1201D2B20B441A76D1
:1021E00000BF0C37BD465DF8047B704700E100E09E
:1021F00000ED00E080B489B000AFF860B9607A60AB
:10220000FB6803F00703FB61FB69C3F10703042BC1
:1022100028BF0423BB61FB690433062B02D9FB6989
:10222000033B00E000237B614FF0FF32BB6902FA01
:1022300003F3DA43BB681A407B699A404FF0FF31E1
:102240007B6901FA03F3D9437B680B4013431846BB
:102250002437BD465DF8047B7047000080B485B02C
:1022600000AF7860084B9A6C07497B6813438B6416
:10227000054B9A6C7B681340FB60FB6800BF14370A
:10228000BD465DF8047B70470010024080B500AF8A
:102290000420FFF7E3FF0220FFF7E0FFFFF754FF02
:1022A0000346002200211846FFF7A4FF0346194603
:1022B0003820FFF775FF3820FFF754FFFFF744FF82
:1022C0000346002200211846FFF794FF03461946F3
:1022D0003920FFF765FF3920FFF744FF00BF80BDBD
:1022E00080B483B000AF7860074BD3F8883023F018
:1022F000407205497B681343C1F8883000BF0C3732
:10230000BD465DF8047B70470010024080B500AF09
:102310001F4B204A1A601E4B00225A601C4B0022A1
:102320009A601B4B0022DA60194B01221A74184B79
:1023300000225A74164B00229A74154B88225A6157
:10234000134B04229A61124B0522DA61104B0422CE
:102350001A620F4B0A225A620D4B02229A620C4BF0
:102360001522DA620A4B0C221A63094B00225A63C7
:10237000074B03229A63064B0022DA63044801F0FC
:1023800013F80346002B01D000F0FAF900BF80BD1E
:10239000FC2F00200068004080B58AB000AF786054
:1023A00007F1140300221A605A609A60DA601A6119
:1023B0007B681B68194A93422BD14FF00070FFF7DE
:1023C0008FFF174B9B6D164A43F000739365144BB8
:1023D0009B6D03F000733B613B69114BDB6C104A52
:1023E00043F00203D3640E4BDB6C03F00203FB608B
:1023F000FB6860237B610223BB610023FB61002338
:102400003B6209237B6207F114031946054801F07A
:1024100035FC00BF2837BD4680BD00BF00680040C6
:10242000001002400004004880B485B000AF78601E
:10243000084BDA6C07497B681343CB64054BDA6CB5
:102440007B681340FB60FB6800BF1437BD465DF836
:10245000047B70470010024080B500AF2020FFF7DA
:10246000E3FF0120FFF7E0FF0420FFF7DDFF02207C
:10247000FFF7DAFF00BF80BD80B400AF054B1B68DB
:10248000044A43F48033136000BFBD465DF8047B0B
:10249000704700BF0010024080B400AF074B1B68BC
:1024A00003F40033B3F5003F01D1012300E0002322
:1024B0001846BD465DF8047B704700BF001002401F
:1024C00080B483B000AF7860064B9B6823F00302B2
:1024D00004497B6813438B6000BF0C37BD465DF831
:1024E000047B70470010024080B400AF044B9B682F
:1024F00003F00C031846BD465DF8047B704700BF2F
:102500000010024080B483B000AF7860064B9B6837
:1025100023F0F00204497B6813438B6000BF0C3743
:10252000BD465DF8047B70470010024080B483B064
:1025300000AF7860064B9B6823F4E06204497B6837
:1025400013438B6000BF0C37BD465DF8047B7047BA
:102550000010024080B483B000AF7860064B9B68E7
:1025600023F4605204497B6813438B6000BF0C372F
:10257000BD465DF8047B70470010024080B400AF98
:10258000054B1B68044A43F08073136000BFBD46CF
:102590005DF8047B704700BF0010024080B400AFBC
:1025A000074B1B6803F00073B3F1007F01D10123D7
:1025B00000E000231846BD465DF8047B704700BF6D
:1025C0000010024080B485B000AFF860B9607A6056
:1025D0003B600A4BDA680A4B1340F968BA6811434A
:1025E0007A68120211433A680A4304491343CB60E4
:1025F00000BF1437BD465DF8047B704700100240F1
:102600000C80FFF980B400AF054BDB68044A43F04F
:102610008073D36000BFBD465DF8047B704700BF88
:102620000010024080B483B000AF7860064B1B6896
:1026300023F00F0204497B6813430B6000BF0C3783
:10264000BD465DF8047B70470020024080B400AFB7
:10265000044B1B6803F00F031846BD465DF8047B6E
:10266000704700BF0020024080B400AF064BD3F893
:102670008030054A23F48073C2F8803000BFBD4625
:102680005DF8047B704700BF0070004080B500AF6C
:1026900000F025FD72B600BF00F092FD00F00EF8CC
:1026A000FFF7DAFEFFF7F2FDFFF730FE00F082F9E8
:1026B00000F014FCFEF77CF9FEE7000080B500AFE7
:1026C0000420FFF7AFFF00BFFFF7C0FF0346042B56
:1026D000FAD1FFF7C9FFFFF7CFFE00BFFFF7DCFE1F
:1026E0000346012BFAD10023552250210320FFF786
:1026F00069FFFFF787FFFFF741FF00BFFFF74EFFBE
:102700000346012BFAD10320FFF7DAFE8020FFF702
:10271000F9FE00BFFFF7E8FE03460C2BFAD1154B7C
:10272000DB68144A43F08073D360134B1B68124A72
:1027300043F001031360104B00225A6000BF0E4BA0
:102740005B68632BFBD90020FFF7DCFE0020FFF75E
:10275000EDFE0020FFF7FEFE084802F037FE0F20D6
:1027600000F0D6FC0346002B01D000F009F800BFB2
:1027700080BD00BFF0ED00E0001000E080FE210A07
:1027800080B400AF72B600BFFEE7000080B582B033
:1027900000AF0F4B1B6E0E4A43F0010313660C4B48
:1027A0001B6E03F001037B607B68094B9B6D084A3D
:1027B00043F080539365064B9B6D03F080533B6061
:1027C0003B6801F0DDFB00BF0837BD4680BD00BFA0
:1027D0000010024080B400AFFEE780B400AFFEE717
:1027E00080B400AFFEE780B400AFFEE780B400AF76
:1027F000FEE780B400AF00BFBD465DF8047B7047C4
:1028000080B400AF00BFBD465DF8047B704780B464
:1028100000AF00BFBD465DF8047B704780B500AFD8
:1028200000F0B0FC00BF80BD80B400AF00BFBD466B
:102830005DF8047B704780B400AF00BFBD465DF813
:10284000047B704780B400AF064BD3F88830054A4C
:1028500043F47003C2F8883000BFBD465DF8047BC6
:10286000704700BF00ED00E080B485B000AF786035
:10287000084B9A6D07497B6813438B65054B9A6D2E
:102880007B681340FB60FB6800BF1437BD465DF8F2
:10289000047B70470010024080B483B000AF7860C2
:1028A0007B681B6843F080027B681A6000BF0C37AE
:1028B000BD465DF8047B704780B485B000AF78609A
:1028C00039603B68012B2ED03B68042B29D03B6834
:1028D000102B24D03B68402B1FD03B68B3F5807F82
:1028E00019D03B68B3F5806F13D03B68B3F5805FB8
:1028F0000DD03B68B3F5804F07D03B68B3F5803F00
:1029000001D1082310E009230EE007230CE0062381
:102910000AE0052308E0042306E0032304E0022381
:1029200002E0012300E00023FB737B6818331946A3
:10293000FB7B0B4AD35C0B44BB60BB681A68FB7B18
:102940000849CB5C194604238B40DB431A40BB6823
:102950001A6000BF1437BD465DF8047B704700BFA6
:10296000985A0008A45A000880B483B000AF786079
:1029700039607B685B6823F0007323F070033A686A
:102980001A437B685A6000BF0C37BD465DF8047B74
:10299000704780B483B000AF78607B689B6823F099
:1029A00080027B689A6000BF0C37BD465DF8047BEF
:1029B0007047000080B58EB000AF07F124030022FD
:1029C0001A605A609A60DA601A613B1D2022002169
:1029D000184602F03DFD0420FFF746FF0423BB84A8
:1029E0000023BB624AF20363FB6200233B6307F1EF
:1029F00024031946124801F0CBFF1148FFF74CFFA2
:102A000000237B600023BB600023FB6000233B614D
:102A100000237B613B1D1A460121094802F05AF848
:102A200001210748FFF748FF00210548FFF79CFFF9
:102A30000348FFF7AEFF00BF3837BD4680BD00BF7B
:102A40000008004080B487B000AFF860B9607A60D9
:102A5000FB687B610E4ABB6813441B781A467B698E
:102A600013441B6823F4804323F010030849BA6819
:102A70000A44127811467A690A4411467A68134367
:102A80000B6000BF1C37BD465DF8047B704700BF7C
:102A9000B05A000880B487B000AFF860B9607A60BF
:102AA000FB687B610D4ABB6813441B781A467B693F
:102AB00013441B6823F020020849BB680B441B78B1
:102AC00019467B690B4419467B6813430B6000BFB2
:102AD0001C37BD465DF8047B704700BFB05A000844
:102AE00080B487B000AFF860B9607A60FB687B6142
:102AF0000D4ABB6813441B781A467B6913441B6854
:102B000023F040020849BB680B441B7819467B69D7
:102B10000B4419467B6813430B6000BF1C37BD464E
:102B20005DF8047B704700BFB05A000880B487B0DE
:102B300000AFF860B9607A60FB687B610D4ABB68E2
:102B400013441B781A467B6913441B6823F08002E8
:102B50000849BB680B441B7819467B690B4419462E
:102B60007B6813430B6000BF1C37BD465DF8047BD8
:102B7000704700BFB05A000880B487B000AFF8605B
:102B8000B9607A60FB687B610D4ABB6813441B78AF
:102B90001A467B6913441B6823F440720849BB68DA
:102BA0000B441B7819467B690B4419467B68134319
:102BB0000B6000BF1C37BD465DF8047B704700BF4B
:102BC000B05A000880B487B000AFF860B9607A608E
:102BD000FB687B610D4ABB6813441B781A467B690E
:102BE00013441B6823F440620849BB680B441B78FC
:102BF00019467B690B4419467B6813430B6000BF81
:102C00001C37BD465DF8047B704700BFB05A000812
:102C100080B487B000AFF860B9607A60FB687B6110
:102C20000D4ABB6813441B781A467B6913441B6822
:102C300023F440520849BB680B441B7819467B6952
:102C40000B4419467B6813430B6000BF1C37BD461D
:102C50005DF8047B704700BFB05A000880B487B0AD
:102C600000AFF860B9607A60FB689B0A83F4801358
:102C700083F08003DB007B61BA687B6913449B00AF
:102C800003F1804303F502331B6823F0FF01BA68A8
:102C90007B6913449B0003F1804303F502337A6898
:102CA0000A431A6000BF1C37BD465DF8047B7047BD
:102CB00080B483B000AF7860094BD3F888207B687C
:102CC0001B0CDB431A407B689BB205491343C1F8D8
:102CD000883000BF0C37BD465DF8047B704700BFED
:102CE0000010024080B485B000AF7860084BDA6C09
:102CF00007497B681343CB64054BDA6C7B68134050
:102D0000FB60FB6800BF1437BD465DF8047B70476D
:102D10000010024080B485B000AF7860084B9A6D17
:102D200007497B6813438B65054B9A6D7B6813409D
:102D3000FB60FB6800BF1437BD465DF8047B70473D
:102D40000010024080B483B000AF78607B681B68DD
:102D500043F001027B681A6000BF0C37BD465DF886
:102D6000047B704780B483B000AF78607B681B68D9
:102D700023F000527B681A6000BF0C37BD465DF837
:102D8000047B704780B489B000AF786039607B689D
:102D90000833FB60FB6853E8003FBB60BB6823F06F
:102DA00060423B685B071343FB617B680833FA6949
:102DB000BA617B617969BA6941E800233B613B698B
:102DC000002BE4D100BF00BF2437BD465DF8047B73
:102DD000704780B489B000AF786039607B68083391
:102DE000FB60FB6853E8003FBB60BB6823F0606298
:102DF0003B685B061343FB617B680833FA69BA6181
:102E00007B617969BA6941E800233B613B69002B2A
:102E1000E4D100BF00BF2437BD465DF8047B704796
:102E200080B483B000AF78607B689B6843F48052C5
:102E30007B689A6000BF0C37BD465DF8047B704725
:102E400080B483B000AF78607B685B6823F4904205
:102E50007B685A607B689B6823F02A027B689A60D3
:102E600000BF0C37BD465DF8047B704780B483B06B
:102E700000AF78607B68DB6903F40013B3F5001FD3
:102E800001D1012300E0002318460C37BD465DF850
:102E9000047B704780B483B000AF78607B68DB69E7
:102EA00003F48003B3F5800F01D1012300E0002378
:102EB00018460C37BD465DF8047B704780B483B07C
:102EC00000AF78607B689B6823F400527B689A604F
:102ED00000BF0C37BD465DF8047B704780B58EB0EF
:102EE00000AF07F1180320220021184602F0B0FAC3
:102EF0003B4600221A605A609A60DA601A615A6191
:102F00004FF44010FFF7D4FE4FF48020FFF702FF8C
:102F10000420FFF7E7FE4FF480633B6002237B60F1
:102F20000023BB600023FB6000233B6107237B6120
:102F30003B461946524801F07EF94FF400633B606E
:102F400002237B600023BB600023FB6000233B6106
:102F500007237B613B461946494801F06CF91C2266
:102F600000214848FFF77AFE002200214548FFF77C
:102F700069FD002200214348FFF74AFE202200217C
:102F80004048FFF787FD002200213E48FFF7A8FDDB
:102F9000802200213B48FFF7C9FD0022002139486B
:102FA000FFF7EAFD002200213648FFF70BFE1D2245
:102FB00001213448FFF752FE102201213148FFF76A
:102FC00041FD002201212F48FFF722FE00220121AE
:102FD0002C48FFF75FFD002201212A48FFF780FD02
:102FE000802201212748FFF7A1FD00220121254869
:102FF000FFF7C2FD002201212248FFF7E3FD002375
:10300000BB614FF4E133FB6100233B6200237B6231
:103010000023BB620C23FB6200233B6300237B6322
:1030200007F118031946184802F04AF9002116481A
:10303000FFF7A8FE00211448FFF7CBFE1248FFF768
:1030400091FE1148FFF7ECFE0F48FFF737FF0E48DF
:10305000FFF7F6FE0C48FFF775FE00BF0A48FFF7C2
:1030600005FF0346002BF9D00748FFF713FF03467F
:10307000002BF3D000BF00BF3837BD4680BD00BF76
:103080000008004800040240004800400D48854602
:103090000D480E490E4A002302E0D458C4500433B0
:1030A000C4188C42F9D30B4A0B4C002301E0136087
:1030B0000432A242FBD3FFF7C5FB02F097F9FFF7FA
:1030C000E5FAFEE700000220000400202C040020A6
:1030D000F05A00082C04002064300020FEE780B580
:1030E00082B000AF0023FB71032000F02BF90F200A
:1030F00000F00EF80346002B02D00123FB7101E023
:10310000FFF744FBFB7918460837BD4680BD000039
:1031100080B584B000AF78600023FB73164B1B684A
:10312000002B22D0154B1A68134B1B684FF47A7191
:10313000B1FBF3F3B2FBF3F3184600F028F90346B2
:10314000002B0FD17B680F2B09D8002279684FF034
:10315000FF3000F002F90A4A7B68136007E00123A0
:10316000FB7304E00123FB7301E00123FB73FB7B92
:1031700018461037BD4680BD08040020000400201A
:103180000404002080B400AF054B1A68054B1B688F
:103190001344034A136000BFBD465DF8047B7047CB
:1031A000603000200804002080B400AF034B1B688F
:1031B0001846BD465DF8047B704700BF60300020B4
:1031C00080B400AF054B1B68044A23F00203136070
:1031D00000BFBD465DF8047B704700BF10E000E013
:1031E00080B485B000AF78607B6803F00703FB60B4
:1031F0000C4BDB68BB60BA684FF6FF031340BB6043
:10320000FB681A02BB68134343F0BF6343F4003307
:10321000BB60044ABB68D36000BF1437BD465DF88D
:10322000047B704700ED00E080B400AF044BDB6826
:103230001B0A03F007031846BD465DF8047B704780
:1032400000ED00E080B483B000AF03463960FB714D
:1032500097F90730002B0ADB3B68DAB20C4997F983
:1032600007301201D2B20B4483F800230AE03B6816
:10327000DAB20849FB7903F00F03043B1201D2B222
:103280000B441A7600BF0C37BD465DF8047B7047CF
:1032900000E100E000ED00E080B489B000AFF8602C
:1032A000B9607A60FB6803F00703FB61FB69C3F157
:1032B0000703042B28BF0423BB61FB690433062BDF
:1032C00002D9FB69033B00E000237B614FF0FF3232
:1032D000BB6902FA03F3DA43BB681A407B699A4080
:1032E0004FF0FF317B6901FA03F3D9437B680B4050
:1032F000134318462437BD465DF8047B7047000031
:1033000080B582B000AF78607B68013BB3F1807F0D
:1033100001D301230FE00A4A7B68013B53600F2170
:103320004FF0FF30FFF78EFF054B00229A60044BF1
:1033300007221A60002318460837BD4680BD00BF2B
:1033400010E000E080B582B000AF78607868FFF7E9
:1033500047FF00BF0837BD4680BD80B586B000AFCF
:103360000346B9607A60FB73FFF75EFF78617A68A5
:10337000B9687869FFF790FF024697F90F30114658
:103380001846FFF75FFF00BF1837BD4680BD80B508
:1033900082B000AF78607868FFF7B2FF0346184646
:1033A0000837BD4680BD000080B584B000AF7860AE
:1033B0007B68002B01D1012347E17B6893F85C30E7
:1033C000DBB2002B06D17B68002283F85D20786891
:1033D000FEF7E2FF7B681B689A697B681B6822F036
:1033E00010029A61FFF7E0FEF86012E0FFF7DCFEE2
:1033F0000246FB68D31A0A2B0BD97B681B6E43F07D
:1034000001027B681A667B68032283F85C20012333
:103410001BE17B681B689B6903F00803082BE5D060
:103420007B681B689A697B681B6842F001029A619D
:10343000FFF7BAFEF86012E0FFF7B6FE0246FB683F
:10344000D31A0A2B0BD97B681B6E43F001027B68F1
:103450001A667B68032283F85C200123F5E07B6811
:103460001B689B6903F00103002BE5D07B681B6898
:103470009A697B681B6842F002029A617B681B684C
:10348000744A934203D1744A7B685B6813607B681B
:103490001B7C012B08D17B681B689A697B681B68C1
:1034A00022F040029A6107E07B681B689A697B689A
:1034B0001B6842F040029A617B685B7C012B08D15B
:1034C0007B681B689A697B681B6842F480429A613A
:1034D00007E07B681B689A697B681B6822F480425E
:1034E0009A617B689B7C012B08D17B681B689A6979
:1034F0007B681B6822F480529A6107E07B681B6836
:103500009A697B681B6842F480529A617B681B68E9
:103510009B6923F440717B689A687B681B680A4347
:103520009A617B681B689A697B681B6822F0A40219
:103530009A617B681B681A697B681B6822F010021D
:103540001A617B68DB68012B08D17B681B689A696C
:103550007B681B6842F004029A612CE07B68DB68A0
:10356000002B28D07B68DB68022B1CD07B681B6893
:103570009A697B681B6842F080029A617B681B68CD
:103580001A697B681B6842F010021A617B68DB686D
:10359000032B10D17B681B689A697B681B6842F01B
:1035A00020029A6107E07B681B689A697B681B6848
:1035B00042F020029A617B689B69013B5A067B6856
:1035C000DB69013B1B021A437B681B6A013B42EA31
:1035D00003017B685B69013B1A047B681B680A4333
:1035E000DA617B689B68B3F5407F15D17B689B6A85
:1035F0005A1E7B68DB6A013B1B021A437B681B6B0C
:10360000013B1B0142EA03017B685B6A013B1A0430
:103610007B681B680A43DA607B681B68D3F8C010BC
:103620007B68DA6B7B681B680A43C3F8C020786844
:1036300000F014F87B6800229A657B6800221A6605
:103640007B68012283F85C20002318461037BD46B2
:1036500080BD00BF006400400065004080B485B0BC
:1036600000AF7860304BBB607B681B682F4A934289
:1036700003D1BB6803F55473BB607B681B682C4A9D
:10368000934203D1BB6803F5D463BB607B68BA681F
:103690001A647B681B68D3F8803023F4F8117B68C8
:1036A0005B6B1A047B681B680A43C3F88020BB6805
:1036B00003F170027B685A647B681B68D3F8803022
:1036C00023F070617B689B6B1A067B681B680A435A
:1036D000C3F88020BB6803F1B0027B689A64BB68C2
:1036E00003F5C4727B68DA64BB6803F518727B6803
:1036F0001A65BB6803F51E727B685A65BB68FB6080
:1037000005E0FB6800221A60FB680433FB60BB68BD
:1037100003F55473FA689A42F3D300BF00BF14371D
:10372000BD465DF8047B704700A40040006800407F
:10373000006C004080B586B000AFF860B960C7E9A2
:10374000002300233B61244B1B78012B01D1022372
:103750003EE0214B01221A704FF47A7000F07CF8A1
:103760000346FB75FB7D002B2ED11B4B00225A60BC
:10377000FB68002B07D1D7E90023B86800F0C0F838
:1037800001233B6110E0FB68012B02D0FB68022B98
:103790000AD13B681946B86800F0D8F8FB68022BDC
:1037A00002D14FF480233B614FF47A7000F054F85B
:1037B0000346FB753B69002B06D0084B5A693B69F1
:1037C000DB43064913404B61034B00221A70FB7D1B
:1037D00018461837BD4680BD0C040020002002406A
:1037E00080B483B000AF0023FB710B4B5B69002BEF
:1037F0000BDA094B094A9A60074B094A9A60064B53
:103800005B69002B01DA0123FB71FB7918460C3749
:10381000BD465DF8047B70470020024023016745E8
:10382000AB89EFCD80B483B000AF0123FB71094BAE
:103830005B69084A43F000435361064B5B69002B08
:1038400001DA0023FB71FB7918460C37BD465DF8A1
:10385000047B70470020024080B584B000AF7860E0
:10386000FFF7A2FCF86009E0FFF79EFC0246FB6848
:10387000D31A7A689A4201D2032338E01E4B1B699F
:1038800003F48033B3F5803FEED01B4B1A694CF242
:10389000FA331340BB60BB68002B1ED0174B5A682D
:1038A000BB681343154A5360BB6803F07043002B99
:1038B00007D0114B9A69BB6803F070430E4913435C
:1038C0008B61BB6823F07043002B04D00A4ABB68AD
:1038D00023F070431361012309E0074B1B6903F0D8
:1038E0000103012B02D1044B01221A610023184667
:1038F0001037BD4680BD00BF002002400C040020F0
:1039000080B485B000AFF860C7E900230E4B5B6957
:103910000D4A43F001035361FB683A681A60BFF334
:103920006F8F00BFD7E900014FF000024FF0000396
:103930000A000023F968043113460B6000BF1437F6
:10394000BD465DF8047B70470020024080B489B01A
:1039500000AF786039604023FB777B68BB613B68D0
:103960007B61144B5B69134A43F480235361EFF38B
:103970001083FB60FB683B6172B600BF7B691A680D
:10398000BB691A60BB690433BB617B6904337B612B
:10399000FB7F013BFB77FB7F002BEFD13B69BB60DB
:1039A000BB6883F3108800BF00BF2437BD465DF8B5
:1039B000047B70470020024080B584B000AF78607F
:1039C0003960494B1B78012B01D1022387E0464B1C
:1039D00001221A704FF47A70FFF73EFF0346FB7323
:1039E000FB7B002B77D1404B00225A603F4B1B687A
:1039F00003F40073002B13D03C4B1B6803F480636B
:103A0000002B09D0394B1B68384A23F480631360BC
:103A1000354B03221A7716E0334B01221A7712E056
:103A2000324B1B6803F48063002B09D02F4B1B68BB
:103A30002E4A23F4806313602B4B02221A7702E094
:103A4000294B00221A777B681B68012B13D17B68F6
:103A50005B68184600F04CF84FF47A70FFF7FCFEF4
:103A60000346FB73214B5B69204A23F4004323F098
:103A7000040353612DE03B684FF0FF321A607B680E
:103A80009B68BB601DE07B685B681946B86800F006
:103A900067F84FF47A70FFF7DFFE0346FB73134BB2
:103AA0005B69124A23F47E7323F002035361FB7BAC
:103AB000002B03D03B68BA681A600AE0BB68013388
:103AC000BB607B689A687B68DB681344BA689A427B
:103AD000D9D300F089F8044B00221A70FB7B1846FA
:103AE0001037BD4680BD00BF0C04002000200240FE
:103AF00080B483B000AF7860184B1B6A03F4800376
:103B0000002B16D07B6803F00103002B05D0134B6C
:103B10005B69124A43F0040353617B6803F00203BC
:103B2000002B0ED00D4B5B690C4A43F400435361EC
:103B300007E00A4B5B69094A43F4004343F004037E
:103B40005361064B5B69054A43F48033536100BF00
:103B50000C37BD465DF8047B704700BF0020024073
:103B600080B483B000AF786039601E4B1B6A03F4E9
:103B70008003002B06D11B4B5B691A4A23F40063B8
:103B8000536111E03B6803F00103002B06D0154B95
:103B90005B69144A23F40063536105E0114B5B69D0
:103BA000104A43F4006353610E4B5B6923F47E7249
:103BB0007B68DB0003F4FF630A4913434B61094B45
:103BC0005B69084A43F002035361064B5B69054A8F
:103BD00043F48033536100BF0C37BD465DF8047B6E
:103BE000704700BF0020024080B483B000AF214B7B
:103BF0001B7FFB71FB79012B02D0FB79032B17D1C3
:103C00001D4B1B681C4A23F4007313601A4B1B687E
:103C1000194A43F400631360174B1B68164A23F4D8
:103C200000631360144B1B68134A43F40073136062
:103C3000FB79022B02D0FB79032B11D10E4B1B68B1
:103C40000D4A43F4805313600B4B1B680A4A23F45C
:103C500080531360084B1B68074A43F4806313606A
:103C6000044B00221A7700BF0C37BD465DF8047B79
:103C7000704700BF0C0400200020024080B487B0D1
:103C800000AF7860396000237B615AE13B681A68B5
:103C900001217B6901FA03F31340FB60FB68002BF1
:103CA00000F04C813B685B6803F00303012B05D0F7
:103CB0003B685B6803F00303022B30D17B689B6891
:103CC0003B617B695B00032202FA03F3DB433A6941
:103CD00013403B613B68DA687B695B0002FA03F3DF
:103CE0003A6913433B617B683A699A607B685B6819
:103CF0003B6101227B6902FA03F3DB433A6913401B
:103D00003B613B685B681B0903F001027B6902FAB7
:103D100003F33A6913433B617B683A695A603B6835
:103D20005B6803F00303032B17D07B68DB683B6100
:103D30007B695B00032202FA03F3DB433A69134019
:103D40003B613B689A687B695B0002FA03F33A695E
:103D500013433B617B683A69DA603B685B6803F058
:103D60000303022B23D17B69DA087B68083253F8FE
:103D700022303B617B6903F007039B000F2202FAAC
:103D800003F3DB433A6913403B613B681A697B6983
:103D900003F007039B0002FA03F33A6913433B6104
:103DA0007B69DA087B680832396943F822107B683E
:103DB0001B683B617B695B00032202FA03F3DB4370
:103DC0003A6913403B613B685B6803F003027B691F
:103DD0005B0002FA03F33A6913433B617B683A697B
:103DE0001A603B685B6803F44033002B00F0A68048
:103DF0005B4B1B6E5A4A43F001031366584B1B6E14
:103E000003F00103BB60BB68564A7B699B08023321
:103E100052F823303B617B6903F003039B000F22C0
:103E200002FA03F3DB433A6913403B617B68B3F169
:103E3000904F1FD07B684C4A934219D07B684B4A05
:103E4000934213D07B684A4A93420DD07B68494A1B
:103E5000934207D07B68484A934201D105230AE088
:103E6000062308E0042306E0032304E0022302E023
:103E7000012300E000237A6902F0030292009340DC
:103E80003A6913433B6137497B699B0802333A69BE
:103E900041F82320394B9B683B61FB68DB433A695F
:103EA00013403B613B685B6803F48013002B03D035
:103EB0003A69FB6813433B61304A3B6993602F4B7F
:103EC000DB683B61FB68DB433A6913403B613B685D
:103ED0005B6803F40013002B03D03A69FB681343BB
:103EE0003B61264A3B69D360244B5B683B61FB68BE
:103EF000DB433A6913403B613B685B6803F4003382
:103F0000002B03D03A69FB6813433B611B4A3B69B2
:103F100053601A4B1B683B61FB68DB433A691340F3
:103F20003B613B685B6803F48033002B03D03A6944
:103F3000FB6813433B61114A3B6913607B690133A2
:103F40007B613B681A687B6922FA03F3002B7FF4DC
:103F50009DAE00BF00BF1C37BD465DF8047B7047B7
:103F60000010024000000140000400480008004822
:103F7000000C0048001000480014004800040140F4
:103F800080B400AF054B9B68044A43F480439360C0
:103F900000BFBD465DF8047B704700BF0070004065
:103FA00080B48BB000AFF860B9607A60FB681A68C3
:103FB000BB687B617B6993FAA3F33B613B69BB619F
:103FC000BB69002B01D1202303E0BB69B3FA83F363
:103FD000DBB25B00032101FA03F3DB431A40BB6849
:103FE0003B623B6A93FAA3F3FB61FB697B627B6AEA
:103FF000002B01D1202303E07B6AB3FA83F3DBB209
:104000005B00796801FA03F31A43FB681A6000BF8A
:104010002C37BD465DF8047B704780B485B000AF97
:10402000F860B9607A60FB685A68BB68DB431A4085
:10403000BB68796801FB03F31A43FB685A6000BF51
:104040001437BD465DF8047B704780B48BB000AF79
:10405000F860B9607A60FB689A68BB687B617B69CD
:1040600093FAA3F33B613B69BB61BB69002B01D1B0
:10407000202303E0BB69B3FA83F3DBB25B000321C7
:1040800001FA03F3DB431A40BB683B623B6A93FAD5
:10409000A3F3FB61FB697B627B6A002B01D12023C8
:1040A00003E07B6AB3FA83F3DBB25B00796801FA61
:1040B00003F31A43FB689A6000BF2C37BD465DF8D6
:1040C000047B704780B48BB000AFF860B9607A6051
:1040D000FB68DA68BB687B617B6993FAA3F33B6199
:1040E0003B69BB61BB69002B01D1202303E0BB69A5
:1040F000B3FA83F3DBB25B00032101FA03F3DB4382
:104100001A40BB683B623B6A93FAA3F3FB61FB690D
:104110007B627B6A002B01D1202303E07B6AB3FA28
:1041200083F3DBB25B00796801FA03F31A43FB689F
:10413000DA6000BF2C37BD465DF8047B704780B461
:104140008BB000AFF860B9607A60FB681A6ABB6830
:104150007B617B6993FAA3F33B613B69BB61BB69FC
:10416000002B01D1202303E0BB69B3FA83F3DBB258
:104170009B000F2101FA03F3DB431A40BB683B624B
:104180003B6A93FAA3F3FB61FB697B627B6A002BBA
:1041900001D1202303E07B6AB3FA83F3DBB29B00F7
:1041A000796801FA03F31A43FB681A6200BF2C37DF
:1041B000BD465DF8047B704780B48BB000AFF860FB
:1041C000B9607A60FB685A6ABB681B0A7B617B69CD
:1041D00093FAA3F33B613B69BB61BB69002B01D13F
:1041E000202303E0BB69B3FA83F3DBB29B000F210A
:1041F00001FA03F3DB431A40BB681B0A3B623B6ACC
:1042000093FAA3F3FB61FB697B627B6A002B01D10C
:10421000202303E07B6AB3FA83F3DBB29B00796867
:1042200001FA03F31A43FB685A6200BF2C37BD46FC
:104230005DF8047B704780B588B000AF7860396066
:104240003B681B683B613B6993FAA3F3FB60FB6827
:104250007B617B69002B01D1202303E07B69B3FAEA
:1042600083F3DBB2FB6148E03B681A680121FB691C
:1042700001FA03F31340BB61BB69002B3AD03B68E2
:104280005B68012B03D03B685B68022B0ED13B6857
:104290009B681A46B9697868FFF7D7FE3B681968CA
:1042A0003B68DB681A467868FFF7B7FE3B681B6916
:1042B0001A46B9697868FFF705FF3B685B68022B0F
:1042C00011D1BB69FF2B07D83B685B691A46B969F6
:1042D0007868FFF734FF06E03B685B691A46B96906
:1042E0007868FFF769FF3B685B681A46B9697868C8
:1042F000FFF756FEFB690133FB613B681A68FB69F7
:1043000022FA03F3002BAFD1002318462037BD4615
:1043100080BD000080B400AF074B1B6803F48063CE
:10432000B3F5806F01D1012300E000231846BD469C
:104330005DF8047B704700BF0010024080B400AFFE
:10434000074BD3F8903003F00203022B01D1012375
:1043500000E000231846BD465DF8047B704700BFAF
:104360000010024080B400AF044B9B6803F00C03C4
:104370001846BD465DF8047B704700BF0010024040
:1043800080B400AF044B9B6803F0F0031846BD46B1
:104390005DF8047B704700BF0010024080B400AF9E
:1043A000044B9B6803F4E0631846BD465DF8047B4C
:1043B000704700BF0010024080B400AF044B9B6800
:1043C00003F460531846BD465DF8047B704700BF98
:1043D0000010024080B483B000AF7860064BD3F881
:1043E00088207B681A407B681B04134318460C37EF
:1043F000BD465DF8047B70470010024080B483B076
:1044000000AF7860064BD3F888207B681A407B6841
:104410001B04134318460C37BD465DF8047B7047F8
:104420000010024080B400AF044BDB6803F00303CC
:104430001846BD465DF8047B704700BF001002407F
:1044400080B400AF044BDB681B0A03F07F031846FF
:10445000BD465DF8047B70470010024080B400AF99
:10446000044BDB6803F0C0631846BD465DF8047B6F
:10447000704700BF0010024080B400AF044BDB68FF
:1044800003F0F0031846BD465DF8047B704700BF9B
:104490000010024080B584B000AF78600023FB605C
:1044A0007B68032B32D17868FFF794FF0346B3F1A2
:1044B000031F16D0B3F1031F1CD8524A934203D0F6
:1044C000514A934204D015E000F034F9F86094E0CA
:1044D000FFF720FF0346002B00F082804B4BFB6070
:1044E0007EE0FFF72BFF0346002B7BD04FF4004309
:1044F000FB6077E000F01EF90346184600F040F933
:104500000346184600F06AF9F86076E07B680C2BE9
:1045100031D17868FFF75EFF0346B3F10C1F15D069
:10452000B3F10C1F1BD83A4A934203D0394A934245
:1045300004D014E000F0FEF8F8605EE0FFF7EAFE59
:104540000346002B50D0314BFB604DE0FFF7F6FEE9
:104550000346002B4AD04FF40043FB6046E000F0D6
:10456000E9F80346184600F00BF90346184600F038
:104570001FF9F86041E07B68302B39D17868FFF78C
:1045800029FF0346B3F1301F15D0B3F1301F1BD8FC
:10459000214A934203D0214A934204D014E000F010
:1045A000C9F8F86029E0FFF7B5FE0346002B21D0DB
:1045B000164BFB601EE0FFF7C1FE0346002B1BD02D
:1045C0004FF40043FB6017E000F0B4F803461846D0
:1045D00000F0D6F80346184600F0EAF8F8600CE060
:1045E00000BF0AE000BF08E000BF06E000BF04E033
:1045F00000BF02E000BF00E000BFFB6818461037B4
:10460000BD4680BD01000300020003000024F40049
:1046100004000C0008000C001000300020003000E6
:1046200080B584B000AF78600023FB607B68C02B4E
:1046300031D17868FFF7E2FE0346B3F1C01F15D011
:10464000B3F1C01F1BD8364A934203D0354A934278
:1046500004D014E000F06EF8F86021E0FFF75AFE95
:104660000346002B19D0304BFB6016E0FFF766FEC7
:104670000346002B13D04FF40043FB600FE000F023
:1046800059F80346184600F07BF80346184600F038
:104690008FF8F86004E000BF02E000BF00E000BF58
:1046A0007B68B3F5407F31D17868FFF7A7FE0346FA
:1046B000B3F1032F15D0B3F1032F1BD81B4A93423C
:1046C00003D01B4A934204D014E000F033F8F860A2
:1046D00021E0FFF71FFE0346002B19D0124BFB60B1
:1046E00016E0FFF72BFE0346002B13D04FF40043D8
:1046F000FB600FE000F01EF80346184600F040F89B
:104700000346184600F054F8F86004E000BF02E0E9
:1047100000BF00E000BFFB6818461037BD4680BDF3
:104720004000C0008000C0000024F400000100032D
:104730000002000380B582B000AFFFF713FE03460E
:104740000C2B0CD00C2B0ED8042B02D0082B03D032
:1047500009E0094B7B6009E0084B7B6006E000F054
:1047600053F8786002E0044B7B6000BF7B6818461A
:104770000837BD4680BD00BF0024F40000366E013E
:1047800080B582B000AF7860FFF7FAFD03461B09E1
:1047900003F00F03054AD35C03F01F037A6822FA83
:1047A00003F318460837BD4680BD00BF805A000895
:1047B00080B582B000AF7860FFF7F0FD03461B0ABA
:1047C000054AD35C03F01F037A6822FA03F3184604
:1047D0000837BD4680BD00BF905A000880B582B042
:1047E00000AF7860FFF7E8FD0346DB0A054AD35CBB
:1047F00003F01F037A6822FA03F318460837BD4610
:1048000080BD00BF905A000890B583B000AFFFF79D
:1048100009FE38603B68022B03D03B68032B03D0B2
:1048200005E0114B7B6005E0104B7B6002E00E4B16
:104830007B6000BFFFF704FE02467B6803FB02F4C7
:10484000FFF71AFE03461B090133B4FBF3F4FFF72D
:1048500005FE03465B0E01335B00B4FBF3F3184621
:104860000C37BD4690BD00BF0024F40000366E0139
:1048700080B483B000AF786039607B683A689A6230
:1048800000BF0C37BD465DF8047B704780B483B031
:1048900000AF786039607B683A68DA6200BF0C3735
:1048A000BD465DF8047B704780B483B000AF78608C
:1048B00039607B683A681A6300BF0C37BD465DF803
:1048C000047B704780B483B000AF786039607B6848
:1048D0003A685A6300BF0C37BD465DF8047B7047E9
:1048E00080B483B000AF786039607B683A689A63BF
:1048F00000BF0C37BD465DF8047B704780B483B0C1
:1049000000AF786039607B683A68DA6300BF0C37C3
:10491000BD465DF8047B704780B483B000AF78601B
:1049200039607B683A681A6400BF0C37BD465DF891
:10493000047B704780B483B000AF786039607B68D7
:104940009B6C7B683A689A6400BF0C37BD465DF883
:10495000047B704780B483B000AF786039607B68B7
:104960003A68DA6400BF0C37BD465DF8047B7047D7
:1049700080B483B000AF78607B685B6943F001026C
:104980007B685A6100BF0C37BD465DF8047B7047F9
:1049900080B584B000AF786039607B681B68FB60CD
:1049A0007B68434A934217D07B68B3F1804F13D0A2
:1049B0007B68404A93420FD07B683F4A93420BD0BA
:1049C0007B683E4A934207D07B683D4A934203D0BE
:1049D0007B683C4A934206D1FB6823F070023B6837
:1049E0005B681343FB607B68314A934223D07B684A
:1049F000B3F1804F1FD07B682E4A93421BD07B6857
:104A00002D4A934217D07B682C4A934213D07B687F
:104A10002B4A93420FD07B682B4A93420BD07B6882
:104A20002A4A934207D07B68294A934203D07B6885
:104A3000244A934206D1FB6823F440723B68DB684A
:104A40001343FB607B68FA681A603B689B681946F1
:104A50007868FFF71BFF3B681B8819467868FFF7EB
:104A600007FF7B68124A934213D07B68144A934233
:104A70000FD07B68144A93420BD07B68134A934251
:104A800007D07B68124A934203D07B680D4A934259
:104A900005D13B681B6919467868FFF705FF786800
:104AA000FFF766FF002318461037BD4680BD00BFE4
:104AB000002C01400004004000080040000C0040B1
:104AC00000340140005001400040014000440140DA
:104AD0000048014080B586B000AFF860B9607A60E8
:104AE0000123FB75BB68B3F5801F45D0BB68B3F5E8
:104AF000801F48D8BB68B3F5803F36D0BB68B3F59C
:104B0000803F40D8BB68B3F5805F27D0BB68B3F562
:104B1000805F38D8BB68B3F5807F18D0BB68B3F529
:104B2000807F30D8BB68012B03D0BB68102B07D027
:104B300029E07968F86800F02DF80346FB7523E05A
:104B40007968F86800F0ACF80346FB751CE07968FA
:104B5000F86800F02FF90346FB7515E07968F868EE
:104B600000F0B2F90346FB750EE07968F86800F0D2
:104B700035FA0346FB7507E07968F86800F098FAA3
:104B80000346FB7500E000BFFB7D18461837BD46A5
:104B900080BD000080B586B000AF786039607B686A
:104BA0001B6A23F001027B681A627B681B6A7B61C7
:104BB0007B685B683B617B689B69FB60FB6823F0FB
:104BC0000303FB60FB6823F4803323F070033A682F
:104BD00012681343FB607B6923F002023B681B6988
:104BE00013437B617B6923F001023B685B681343DD
:104BF0007B617B68244A934213D07B68234A9342AB
:104C00000FD07B68224A93420BD07B68214A9342A3
:104C100007D07B68204A934203D07B681F4A9342A7
:104C20001ED17B6923F008023B685B699B0013433C
:104C30007B617B6923F004023B689B689B00134304
:104C40007B613B6923F480723B689B6913433B6142
:104C50003B6923F400723B68DB695B0013433B61F3
:104C60007B683A695A607B68FA689A613B68DB68DE
:104C700019467868FFF726FE7B687A691A62002376
:104C800018461837BD4680BD002C01400034014055
:104C900000400140004401400048014000500140F4
:104CA00080B586B000AF786039607B681B6A23F0FE
:104CB00010027B681A627B681B6A7B617B685B6899
:104CC0003B617B689B69FB60FB6823F44073FB607E
:104CD000FB6823F0807323F4E0433A681268120201
:104CE0001343FB607B6923F020023B681B691B01B7
:104CF00013437B617B6923F010023B685B681B01F7
:104D000013437B617B68254A934213D07B68244A16
:104D100093420FD07B68234A93420BD07B68224A90
:104D2000934207D07B68214A934203D07B68204A94
:104D300093421FD17B6923F080023B685B699B0132
:104D400013437B617B6923F040023B689B689B01B6
:104D500013437B613B6923F480623B689B699B0042
:104D600013433B613B6923F400623B68DB69DB0072
:104D700013433B617B683A695A607B68FA689A61C1
:104D80003B68DB6819467868FFF7AAFD7B687A699B
:104D90001A62002318461837BD4680BD002C01401A
:104DA00000340140004001400044014000480140FF
:104DB0000050014080B586B000AF786039607B68F4
:104DC0001B6A23F480727B681A627B681B6A7B61B2
:104DD0007B685B683B617B68DB69FB60FB6823F099
:104DE0000303FB60FB6823F4803323F070033A680D
:104DF00012681343FB607B6923F400723B681B69F4
:104E00001B0213437B617B6923F480723B685B6800
:104E10001B0213437B617B68254A934213D07B6856
:104E2000244A93420FD07B68234A93420BD07B687D
:104E3000224A934207D07B68214A934203D07B6881
:104E4000204A93421FD17B6923F400623B685B696F
:104E50009B0213437B617B6923F480623B689B6800
:104E60009B0213437B613B6923F480523B689B693F
:104E70001B0113433B613B6923F400523B68DB6930
:104E80005B0113433B617B683A695A607B68FA684F
:104E9000DA613B68DB6819467868FFF72FFD7B68AD
:104EA0007A691A62002318461837BD4680BD00BFD4
:104EB000002C01400034014000400140004401400A
:104EC000004801400050014080B586B000AF7860D6
:104ED00039607B681B6A23F480527B681A627B68A6
:104EE0001B6A7B617B685B683B617B68DB69FB609D
:104EF000FB6823F44073FB60FB6823F0807323F4AA
:104F0000E0433A68126812021343FB607B6923F4A2
:104F100000523B681B691B0313437B617B6923F4CD
:104F200080523B685B681B0313437B617B68254AA7
:104F3000934213D07B68244A93420FD07B68234A64
:104F400093420BD07B68224A934207D07B68214A68
:104F5000934203D07B68204A93421FD17B6923F49C
:104F600000423B685B699B0313437B617B6923F4CD
:104F700080423B689B689B0313437B613B6923F43E
:104F800080423B689B699B0113433B613B6923F46F
:104F900000423B68DB69DB0113433B617B683A6994
:104FA0005A607B68FA68DA613B68DB6819467868A2
:104FB000FFF7B2FC7B687A691A620023184618373B
:104FC000BD4680BD002C014000340140004001403E
:104FD00000440140004801400050014080B584B0C9
:104FE00000AF786039607B681B6A23F480327B688D
:104FF0001A627B681B6AFB607B681B6DBB60BB68C9
:1050000023F4803323F070033A6812681343BB60C3
:10501000FB6823F400323B681B691B041343FB60ED
:10502000FB6823F480323B685B681B041343FB601E
:105030007B68194A934213D07B68184A93420FD079
:105040007B68174A93420BD07B68164A934207D07D
:105050007B68154A934203D07B68144A934209D176
:105060007B685B6823F480323B689B691B021A43B0
:105070007B685A607B68BA681A653B68DB681946CA
:105080007868FFF757FC7B68FA681A6200231846B5
:105090001037BD4680BD00BF002C014000340140E8
:1050A00000400140004401400048014000500140E0
:1050B00080B584B000AF786039607B681B6A23F4E8
:1050C00080127B681A627B681B6AFB607B681B6DC1
:1050D000BB60BB6823F0807323F4E0433A68126836
:1050E00012021343BB60FB6823F400123B681B6988
:1050F0001B051343FB60FB6823F480123B685B686D
:105100001B051343FB607B68184A934213D07B68EE
:10511000174A93420FD07B68164A93420BD07B68A4
:10512000154A934207D07B68144A934203D07B68A8
:10513000134A934209D17B685B6823F480223B6861
:105140009B699B021A437B685A607B68BA681A6540
:105150003B68DB6819467868FFF7FCFB7B68FA68F8
:105160001A62002318461037BD4680BD002C01404E
:10517000003401400040014000440140004801402B
:105180000050014080B483B000AF78607B681B683A
:1051900003F00103012B01D1012300E00023184695
:1051A0000C37BD465DF8047B704780B483B000AF18
:1051B000786039607B68DB6A23F00F033A6892B24B
:1051C0001A437B68DA6200BF0C37BD465DF8047B8A
:1051D000704780B483B000AF786039607B685B68EB
:1051E00023F440523B681A437B685A6000BF0C3777
:1051F000BD465DF8047B704780B483B000AF786033
:1052000039607B689B6823F440723B681A437B6873
:105210009A6000BF0C37BD465DF8047B7047000004
:1052200080B487B000AFF860B9607A603B607B689B
:105230000B2B3CD83B6A002B39D03B68B3F5004FB1
:1052400022D17B68DBB21A461C4B53F82230BA6875
:10525000B2FBF3F35A003B6A5B081A443B6AB2FBA9
:10526000F3F39BB27B617A694FF6F07313403B61B5
:105270007B695B089BB203F007033A6913433B6108
:10528000FB683A69DA6012E07B68DBB21A460B4BC6
:1052900053F82230BA68B2FBF3F23B6A5B081A4457
:1052A0003B6AB2FBF3F39BB21A46FB68DA6000BFBD
:1052B0001C37BD465DF8047B704700BFB85A000834
:1052C00080B586B002AF786039600123FB7300239C
:1052D000BB607868FFF756FF0346002B65D17B68FB
:1052E0001A68344B13403A6891683A68126911435E
:1052F0003A68526911433A68D2690A431A437B6893
:105300001A603B68DB6819467868FFF762FF3B6804
:105310009B6919467868FFF76FFF7B68264A9342BE
:1053200004D10320FFF7B6F8B86023E07B68234A76
:10533000934204D10C20FFF7ADF8B8601AE07B6807
:105340001F4A934204D13020FFF7A4F8B86011E05F
:105350007B681C4A934204D1C020FFF761F9B86012
:1053600008E07B68184A934204D14FF44070FFF77D
:1053700057F9B860BB68002B11D03B685B68002B05
:105380000DD00023FB733B681A683B68D9693B6802
:105390005B6800930B46B9687868FFF741FF3B688C
:1053A0001B6819467868FFF700FFFB7B184610372B
:1053B000BD4680BDF369FFEF003801400044004066
:1053C00000480040004C00400050004080B483B0D2
:1053D00000AF7860044A7B68136000BF0C37BD469D
:1053E0005DF8047B704700BF0004002070B50D4DD0
:1053F0000D4C641BA4100026A64209D10B4D0C4C89
:1054000000F02EF8641BA4100026A64205D170BD42
:1054100055F8043B98470136EEE755F8043B9847AA
:105420000136F2E7E85A0008E85A0008E85A00088E
:10543000EC5A00080A44914200F1FF3300D1704752
:1054400010B511F8014B03F8014F9142F9D110BD8D
:1054500002440346934200D1704703F8011BF9E769
:10546000F8B500BFF8BC08BC9E467047F8B500BF51
:10547000F8BC08BC9E467047081C3044586C8094A9
:1054800000000000963007772C610EEEBA510999A2
:1054900019C46D078FF46A7035A563E9A395649EFE
:1054A0003288DB0EA4B8DC791EE9D5E088D9D29722
:1054B0002B4CB609BD7CB17E072DB8E7911DBF907E
:1054C0006410B71DF220B06A4871B9F3DE41BE84A2
:1054D0007DD4DA1AEBE4DD6D51B5D4F4C785D383FE
:1054E00056986C13C0A86B647AF962FDECC9658AA2
:1054F0004F5C0114D96C0663633D0FFAF50D088DFE
:10550000C8206E3B5E10694CE44160D5727167A2A1
:10551000D1E4033C47D4044BFD850DD26BB50AA5FD
:10552000FAA8B5356C98B242D6C9BBDB40F9BCAC21
:10553000E36CD832755CDF45CF0DD6DC593DD1AB7D
:10554000AC30D9263A00DE518051D7C81661D0BFA1
:10555000B5F4B42123C4B3569995BACF0FA5BDB8FD
:105560009EB802280888055FB2D90CC624E90BB1A1
:10557000877C6F2F114C6858AB1D61C13D2D66B6FD
:105580009041DC760671DB01BC20D2982A10D5EF61
:105590008985B1711FB5B606A5E4BF9F33D4B8E8BD
:1055A000A2C9077834F9000F8EA8099618980EE161
:1055B000BB0D6A7F2D3D6D08976C6491015C63E6BD
:1055C000F4516B6B62616C1CD83065854E0062F2E1
:1055D000ED95066C7BA5011BC1F4088257C40FF53D
:1055E000C6D9B06550E9B712EAB8BE8B7C88B9FC61
:1055F000DF1DDD62492DDA15F37CD38C654CD4FBBD
:105600005861B24DCE51B53A7400BCA3E230BBD460
:1056100041A5DF4AD795D83D6DC4D1A4FBF4D6D3BC
:105620006AE96943FCD96E34468867ADD0B860DA60
:10563000732D0444E51D03335F4C0AAAC97C0DDDBC
:105640003C710550AA41022710100BBE86200CC9E0
:1056500025B56857B3856F2009D466B99FE461CE3C
:105660000EF9DE5E98C9D9292298D0B0B4A8D7C760
:10567000173DB359810DB42E3B5CBDB7AD6CBAC0BC
:105680002083B8EDB6B3BF9A0CE2B6039AD2B174D8
:105690003947D5EAAF77D29D1526DB048316DC7334
:1056A000120B63E3843B64943E6A6D0DA85A6A7AD8
:1056B0000BCF0EE49DFF099327AE000AB19E077D34
:1056C00044930FF0D2A3088768F2011EFEC2066958
:1056D0005D5762F7CB67658071366C19E7066B6EB4
:1056E000761BD4FEE02BD3895A7ADA10CC4ADD67D8
:1056F0006FDFB9F9F9EFBE8E43BEB717D58EB06034
:10570000E8A3D6D67E93D1A1C4C2D83852F2DF4FD7
:10571000F167BBD16757BCA6DD06B53F4B36B24833
:10572000DA2B0DD84C1B0AAFF64A0336607A0441D7
:10573000C3EF60DF55DF67A8EF8E6E3179BE694633
:105740008CB361CB1A8366BCA0D26F2536E2685257
:1057500095770CCC03470BBBB91602222F260555B3
:10576000BE3BBAC5280BBDB2925AB42B046AB35CD7
:10577000A7FFD7C231CFD0B58B9ED92C1DAEDE5B33
:10578000B0C2649B26F263EC9CA36A750A936D0217
:10579000A906099C3F360EEB856707721357000573
:1057A000824ABF95147AB8E2AE2BB17B381BB60C97
:1057B0009B8ED2920DBED5E5B7EFDC7C21DFDB0BF3
:1057C000D4D2D38642E2D4F1F8B3DD686E83DA1F17
:1057D000CD16BE815B26B9F6E177B06F7747B71873
:1057E000E65A0888706A0FFFCA3B06665C0B011117
:1057F000FF9E658F69AE62F8D3FF6B6145CF6C1673
:1058000078E20AA0EED20DD75483044EC2B3033916
:10581000612667A7F71660D04D476949DB776E3E72
:105820004A6AD1AEDC5AD6D9660BDF40F03BD83796
:1058300053AEBCA9C59EBBDE7FCFB247E9FFB530F2
:105840001CF2BDBD8AC2BACA3093B353A6A3B42416
:105850000536D0BA9306D7CD2957DE54BF67D92372
:105860002E7A66B3B84A61C4021B685D942B6F2A16
:1058700037BE0BB4A18E0CC31BDF055A8DEF022D72
:105880000000C1C081C1400101C3C003800241C208
:1058900001C6C006800741C70005C1C581C44004D8
:1058A00001CCC00C800D41CD000FC1CF81CE400E88
:1058B000000AC1CA81CB400B01C9C009800841C898
:1058C00001D8C018801941D9001BC1DB81DA401A08
:1058D000001EC1DE81DF401F01DDC01D801C41DCD8
:1058E0000014C1D481D5401501D7C017801641D608
:1058F00001D2C012801341D30011C1D181D0401018
:1059000001F0C030803141F10033C1F381F2403207
:105910000036C1F681F7403701F5C035803441F4D7
:10592000003CC1FC81FD403D01FFC03F803E41FE87
:1059300001FAC03A803B41FB0039C1F981F8403897
:105940000028C1E881E9402901EBC02B802A41EA07
:1059500001EEC02E802F41EF002DC1ED81EC402CD7
:1059600001E4C024802541E50027C1E781E6402607
:105970000022C1E281E3402301E1C021802041E017
:1059800001A0C060806141A10063C1A381A2406207
:105990000066C1A681A7406701A5C065806441A4D7
:1059A000006CC1AC81AD406D01AFC06F806E41AE87
:1059B00001AAC06A806B41AB0069C1A981A8406897
:1059C0000078C1B881B9407901BBC07B807A41BA07
:1059D00001BEC07E807F41BF007DC1BD81BC407CD7
:1059E00001B4C074807541B50077C1B781B6407607
:1059F0000072C1B281B3407301B1C071807041B017
:105A00000050C190819140510193C0538052419206
:105A10000196C056805741970055C19581944054D6
:105A2000019CC05C805D419D005FC19F819E405E86
:105A3000005AC19A819B405B0199C0598058419896
:105A40000188C04880494189004BC18B818A404A06
:105A5000004EC18E818F404F018DC04D804C418CD6
:105A60000044C184818540450187C0478046418606
:105A70000182C042804341830041C1818180404016
:105A800000000000000000000102030406070809EE
:105A900000000000010203040000000004040404EC
:105AA000383800000000080000000800000800006E
:105AB000081C3044586C8094010000000200000073
:105AC0000400000006000000080000000A000000BA
:105AD0000C0000001000000020000000400000004A
